:020000040800F2
:1000000020050020D500000861210008BB1F000862
:1000100000000000000000000000000000000000E0
:10002000000000000000000000000000ED220008B9
:100030000000000000000000DD210008EF220008A1
:10004000E7000008E700000855220008E700000864
:10005000E7000008E7000008E7000008E7000008E4
:10006000E7000008E7000008E7000008E7000008D4
:10007000E7000008E7000008B92A0008E7000008C8
:10008000E7000008E7000008052400080000000061
:10009000E7000008E7000008E7000008E7000008A4
:1000A000E7000008E7000008E7000008E700000894
:1000B000E7000008E7000008E7000008E700000884
:1000C0000348854600F08EF800480047A52C00083C
:1000D000200500200448804704480047FEE7FEE76B
:1000E000FEE7FEE7FEE7FEE79D230008C1000008EB
:1000F00030B50B46014600202022012409E00D46C0
:10010000D5409D4205D31D469540491B2546954047
:1001100040191546521E002DF1DC30BDF0B51FB45C
:100120000646002082B005464024019100901BE065
:10013000019922460F46304600F042F8049A059B8A
:10014000801A994110D310461946224600F028F82B
:10015000361A8F410197224601200021009F00F0AE
:100160001FF838184D4100902046641E0028DFDC3F
:10017000019B00982946324607B0F0BDD2B201E09B
:100180000270401C491EFBD270470022F6E710B5F2
:1001900013460A4604461946FFF7F0FF204610BDF5
:1001A00010B5202A04DB0146203A9140002010BD02
:1001B000914020239C1A0346E3401943904010BD10
:1001C00010B5202A04DB0846203AD040002110BD9B
:1001D0000B46D340D0402024A21A91400843194630
:1001E00010BD0000064C0125064E05E0E36807CC73
:1001F0002B430C3C98471034B442F7D3FFF764FF0D
:10020000E42C0008042D0008704770B50446002552
:100210002520005D022803D00420E063012520E0B2
:10022000206800680E218843216808602068006803
:1002300040084000216808601C21606C08400121D2
:100240008140206C416001212520015500BF002123
:100250002420015500BFA06B002802D02046A16BCE
:100260008847284670BD000070B503460022002470
:100270000020DFE0012696400D6835402C46002C1A
:1002800077D04D68022D02D04D68122D15D1D508BA
:10029000AE001D462035A8595507EE0E0F25B54076
:1002A0000646AE4330465607F60E0D69B540284364
:1002B000D508AD001E46203670514D68012D08D07E
:1002C0004D68022D05D04D68112D02D04D68122DBC
:1002D00018D1986856000325B5400646AE4330460F
:1002E0005600CD68B5402843986058680125954070
:1002F0000646AE43304610264D6835402D099540E0
:1003000028435860186856000325B5400646AE439A
:1003100030460D79AD07AD0F5600B5402843186043
:10032000D86856000325B5400646AE433046560011
:100330008D68B5402843D860012636074D683540A2
:10034000B54276D13E4D6D6B012635433C4E75630B
:100350003C4D9608B600A85995072E0F0F25B540BD
:100360000646AE43304605252D07AB4202D1002597
:100370001AE05EE0344DAB4201D1012514E0334D6B
:10038000AB4201D102250FE0314DAB4201D1032533
:100390000AE0304DAB4201D1042505E02E4DAB42C1
:1003A00001D1052500E006259607360FB540284304
:1003B000244D9608B600A851284D28680546A54347
:1003C0002846012636044D683540B54202D105461F
:1003D00025432846214D286068680546A5432846E0
:1003E000012676044D683540B54202D105462543C5
:1003F00028461A4D6860A8680546A5432846012688
:1004000036054D683540B54202D10546254328469C
:10041000124DA860E8680546A543284601267605E2
:100420004D683540B54202D10546254328460B4D5F
:10043000E860521C0D68D540002D00D01AE770BD51
:100440000010024008000140000400500008005065
:10045000000C005000100050001C0050000401402F
:100460000148006870470000000000200248006852
:10047000401C0149086070470000002010B50024AE
:10048000084800684021084306490860002000F041
:100490000BF8002801D0012401E000F0D5F8204637
:1004A00010BD00000020024070B586B00446002553
:1004B000002600222146122000F0E2F8122000F06F
:1004C000D3F81348806B202108431149886369469B
:1004D00001A800F041FB00F067FB05460D492846E6
:1004E000FFF706FE461E0C480C4908600C490B48F5
:1004F000C160466000210161816001F058FA002866
:1005000004D1064801F070FA06B070BD0120FBE787
:100510000010024040420F0000140040E0000020A4
:10052000E703000070B50446002C01D1012070BD26
:100530006068012800D100BF26496069884200D068
:1005400000BF2E20005D002805D100212D2001557F
:10055000204600F045F802212E2001552068C5688C
:100560006068012803D08905A06A884203D11E2152
:1005700028468843054617496069884201D01648D5
:10058000054016480540A16860680843216A084391
:10059000616A0843A16A084305436068012804D0E2
:1005A0000121C905A06A884203D1E1682069084396
:1005B000054308496069884205D06169A06908431C
:1005C000E169084305432068C56001212E200155DB
:1005D0000020ACE7FFFF00003F1FFFFFF8F119FF0D
:1005E00010B586B00446142101A8FFF7CEFD1349CB
:1005F000206888421FD11248806B49050843104982
:10060000886300BF0846C06A042108430C49C862D9
:100610000846C06A04210840009000BF00BF0120C6
:10062000019002200290002003900490059001A9FF
:100630000448FFF719FE06B010BD0000007C004022
:1006400000100240000800500648406B012108439A
:10065000044948630846806B0904084301498863DC
:10066000704700000010024000BFC206D20E0121F8
:100670009140024A116000BF7047000000E100E0B5
:1006800070B504460D4616462946204601F06AFD1F
:1006900070BD000003480068FF2101310843014993
:1006A0000860704700700040F8B5044620212068BB
:1006B0000840202804D089012068084088427DD164
:1006C000202120680840202800D100BF0121C90254
:1006D00020680840884200D100BF00279948806BFD
:1006E000012109070840002805D19648806B08437E
:1006F00094498863012794480068FF21013108402C
:10070000002816D19048006808438F490860FFF719
:10071000A7FE064606E0FFF7A3FE801B642801D96A
:100720000320F8BD88480068FF21013108400028F7
:10073000F1D084480568032109050D406068084030
:10074000A84203D1A0680840A8420ED003210904A2
:1007500060680840884208D17A480068012149044D
:100760000840884201D10120DBE77648403000692B
:100770000321090408400546002D4AD0606808405E
:10078000A84204D020212068084020280BD0032153
:100790000904A0680840A8423BD00121C902206892
:1007A0000840884235D16748403000690321090478
:1007B0008843054663484030006900E052E001216B
:1007C000C90408435F4940310861084600690121B6
:1007D000C90488435B4940310861084605618015BA
:1007E00028408915884214D1FFF73AFE064607E0F3
:1007F000FFF736FE801B5549884201D9032090E758
:10080000504840300069012149020840400A002850
:10081000EED000BF00BF0321090460680840884291
:100820000AD148480068090188430322120561681B
:10083000114008434349086000BF42484030006906
:10084000032212046168114008433E4940310861A7
:1008500000BF012F05D13B48806B8905884339498A
:10086000886300BF2078C007C00F002809D0354832
:100870004030C06880088000E16808433149403159
:10088000C860022120680840022809D12D48403064
:10089000C0680C218843216908432A494031C86057
:1008A00004212068084004280AD126484030C06846
:1008B0000321890288436169084322494031C860A5
:1008C00008212068084008280AD11E484030C06826
:1008D000032109038843A16908431A494031C860CC
:1008E000FF2101312068084088420AD11548403074
:1008F000C068032109048843E16908431149403174
:10090000C860402120680840402809D10D48403087
:10091000C06809058843616A08430A494031C860D4
:1009200080212068084080280AD106484030C068ED
:10093000032189048843216A084302494031C86081
:100940000020EEE600100240007000408813000016
:10095000F8B504460D46002C01D10120F8BD7948B8
:100960000068C007C00FA8420ED276480068400851
:10097000400028437349086008460068C007C00F5C
:10098000A84201D00120E9E702212068084002289E
:1009900007D16D48C068F0218843A16808436A49BF
:1009A000C8602078C007C00F00284CD060680228BB
:1009B00009D165480068012149040840400C00281D
:1009C00024D10120CAE76068032809D15E48006885
:1009D000012149060840400E002817D10120BDE73B
:1009E0006068012808D15848006804210840800840
:1009F00000280BD10120B1E75348006801214902CA
:100A00000840400A002801D10120A7E74E48C068ED
:100A100080088000616808434B49C860FFF720FDEB
:100A20000646606802280FD107E0FFF719FD801B1A
:100A30004649884201D9032090E74348C0680C2109
:100A400008400828F1D134E0606803280FD107E09E
:100A5000FFF706FD801B3D49884201D903207DE751
:100A60003948C0680C2108400C28F1D121E06068A9
:100A700001280FD107E0FFF7F3FC801B33498842C0
:100A800001D903206AE73048C0680C2108400428D7
:100A9000F1D10EE007E0FFF7E3FC801B2B49884211
:100AA00001D903205AE72848C0680C2108400028D3
:100AB000F1D124480068C007C00FA8420ED92148D0
:100AC00000684008400028431E4908600846006846
:100AD000C007C00FA84201D001203FE704212068D1
:100AE0000840042808D11848C06807210902884333
:100AF000E16808431449C8600821206808400828B4
:100B000009D11148C0680721C90288432169C90079
:100B100008430D49C86000F06BF80B49C968F02222
:100B2000114009090A4A515CC8400A49086000207E
:100B3000FFF7BAFC0746002F01D038460EE7002029
:100B40000CE7000000200240001002408813000063
:100B5000C02C0008040000200F2202600D4AD26859
:100B60009207920F42600B4AD268F0231A408260CB
:100B7000084AD26807231B021A40C260054AD2689D
:100B8000DB001A40D2080261034A1268D207D20F72
:100B90000A607047001002400020024001480068CF
:100BA000704700000400002000B5FFF7F7FF05497B
:100BB000C968072212021140090A034A515CC84061
:100BC00000BD000000100240D02C000800B5FFF767
:100BD000E5FF0549C9680722D2021140C90A034A44
:100BE000515CC84000BD000000100240D02C00083D
:100BF000FEB52E48C7680C203840002845D0042890
:100C000004D008280CD00C283ED10BE027480068FF
:100C100010210840002801D0254C00E0254C41E07F
:100C2000254C3FE00F2080043840800C23490E5CA7
:100C3000032080053840800D401C01901B48C0688F
:100C4000012109040840002807D01B4971430846C8
:100C50000199FFF74DFA054614E014480068102189
:100C60000840002807D01249714308460199FFF750
:100C70003FFA054606E00F49714308460199FFF720
:100C800037FA05462C460DE000BF084840680721AA
:100C900049030840400B00900098401C012181400E
:100CA000CC0300BF00BF2046FEBD00000010024084
:100CB00000093D000024F40000127A00D82C00083E
:100CC000FEB50446002C01D10120FEBDFA48C768DC
:100CD0000C210F40C06801210904084001902078D0
:100CE000C007C00F002872D0082F04D00C2F0FD1DE
:100CF000019888420CD1F04800680121490408405D
:100D0000400C002863D06068002860D10120DCE737
:100D100000BF012109046068884205D1E6480068E7
:100D20000843E549086027E0052109046068884216
:100D30000ED1E1480068012189040843DE490860BA
:100D400008460068012109040843DB49086013E0F4
:100D5000D9480068012109048843D749086008463A
:100D60000068012109040840009000BFD2480068D3
:100D700089008843D049086000BF6068002813D00C
:100D8000FFF76EFB054606E0FFF76AFB401B642891
:100D900001D9032099E7C8480068012149040840A7
:100DA000400C0028F0D012E0FFF75AFB054606E0A1
:100DB000FFF756FB401B642801D9032085E7BE4896
:100DC0000068012149040840400C0028F0D10221AC
:100DD0002068084002286BD1E668202030400028B7
:100DE00009D0B548006820210843B3490860202194
:100DF000304688430646042F04D00C2F33D1019887
:100E0000002830D1AC480068042108408008002840
:100E100003D0002E01D1012057E7A74840681F21C9
:100E200009028843216909020843A349486008462A
:100E300000680921884330439F490860FFF7D8FEC6
:100E40009D49C968F022114009099C4A515CC8407B
:100E50009B4908600020FFF727FB029002980028BA
:100E60003FD0029831E7002E23D093480068092133
:100E70008843304390490860FFF7F2FA054606E0E0
:100E8000FFF7EEFA401B022801D903201DE78A482C
:100E900000680421084080080028F1D08648406896
:100EA0001F210902884321690902084382494860D9
:100EB00017E081480068400840007F490860FFF75C
:100EC000CFFA054606E0FFF7CBFA401B022801D90E
:100ED0000320FAE6784800680421084080080028CA
:100EE000F1D1102120680840102867D1002F36D199
:100EF0007148006849010840400A002804D0E069B0
:100F0000002801D10120E0E66B4840680721490331
:100F10008843616A0843684948600846406800029F
:100F2000000A218C0906084363494860606A400B47
:100F3000401C01218140C8035F49C968F02211406B
:100F400009095E4A515CC8405D4908600020FFF70E
:100F5000ABFA0290029800284BD00298B5E6E069FF
:100F600000282CD054480068FF2101310843524921
:100F70000860FFF775FA054606E0FFF771FA401BB7
:100F8000022801D90320A0E64B480068012149024C
:100F90000840400A0028F0D047484068072149032C
:100FA0008843616A08434449486008464068000233
:100FB000000A218C090608433F49486019E03E4871
:100FC0000068FF21013188433B490860FFF748FA78
:100FD000054606E0FFF744FA401B022801D903202A
:100FE00073E635480068012149020840400A00289C
:100FF000F0D1082120680840082839D1606900280C
:101000001BD02D4840300069012108432A49403156
:101010000861FFF725FA054606E0FFF721FA401BB5
:10102000022801D9032050E62348403000690221FC
:10103000084040080028F0D01AE01F4840300069FE
:10104000400840001C4940310861FFF709FA054695
:1010500006E0FFF705FA401B022801D9032034E619
:101060001548403000690221084040080028F0D1AE
:10107000042120680840042879D1002000900E48FF
:10108000806B89060840002806D10B48806B084316
:1010900009498863012000900A480068FF21013156
:1010A000084000281ED10748006808430549086029
:1010B000FFF7D6F905460EE000100240C02C0008EC
:1010C0000400002000700040FFF7CAF9401B6428AC
:1010D00001D90320F9E5B3480068FF210131084038
:1010E0000028F1D000BFFF210131A068884205D15E
:1010F000AD4800690843AC49086130E0A0680028A9
:101100000DD1A9480069FF2101318843A649086132
:101110000846006909158843A34908611FE00521B5
:101120000902A06888420DD19F4800690121890207
:1011300008439D49086108460069891508439A4992
:1011400008610CE098480069FF2101318843964905
:10115000086108460069091588439349086100BF82
:10116000A068002815D0FFF77BF9054608E031E0BC
:10117000FFF776F9401B8D49884201D90320A4E589
:1011800089480069012149020840400A0028EFD03F
:1011900013E0FFF765F9054607E0FFF761F9401B2B
:1011A0008249884201D903208FE57F4800690121E7
:1011B00049020840400A0028EFD10098012808D1D0
:1011C00079484038806B01210907884376494039C6
:1011D000886300BF202120680840202852D1A069E0
:1011E00000282BD000BF7048403880680121084398
:1011F0006D49403988600846406B012108436A49BF
:10120000403948636A48006A012149030843684934
:10121000086200BFFFF724F9054606E0FFF720F952
:10122000401B022801D903204FE55F484038806801
:101230000221084040080028F0D023E000BF5A48AF
:101240004038806840084000574940398860584815
:10125000006A0121490388435549086200BFFFF72E
:10126000FFF8054606E0FFF7FBF8401B022801D90E
:1012700003202AE54C484038806802210840400895
:101280000028F0D1A06A00284CD00C2F69D0A06AA9
:10129000022848D1444840380068012109068843A3
:1012A000414940390860FFF7DBF8054606E0FFF7E3
:1012B000D7F8401B022801D9032006E53A484038F8
:1012C0000068012149060840400E0028EFD1216B3B
:1012D000E06A0843616B084333494039C968FD221D
:1012E00012049143084330494039C86008460068F9
:1012F0000121090608432C4940390860FFF7B0F87E
:10130000054606E0FFF7ACF8401B022801D9032090
:10131000DBE4254840380068012149060840400EBA
:101320000028EFD03CE02048403800680121090641
:1013300088431D4940390860FFF792F8054606E0EA
:10134000FFF78EF8401B022801D90320BDE41648A0
:1013500040380068012149060840400E0028EFD1BE
:101360001EE0A06A012800D1AFE40F484038C068F1
:1013700001900121090401980840E16A88420DD1D9
:101380000F21890401980840216B884206D103216E
:10139000890501980840616B884201D0012094E4DE
:1013A000002092E4007000404010024088130000CA
:1013B00000000140F8B504460E46174600BF202045
:1013C000005D012801D10220F8BD01212020015536
:1013D00000BF02212120015500BFCA2021684862B8
:1013E00053202168486200BF20688068012189027B
:1013F0000840002820D0FFF733F8054615E0FFF736
:101400002FF8401B7D21C90088420ED900BFFF2064
:101410002168486200BF03212120015500BF00213F
:101420002020015500BF0320CEE72068C0680421BA
:10143000084080080028E2D12068806801218902E4
:101440008843216888602068C068802108402E4950
:1014500008432168C860FFF703F8054615E0FEF76A
:10146000FFFF401B7D21C90088420ED900BFFF202D
:101470002168486200BF03212120015500BF0021DF
:101480002020015500BF03209EE72068C06804218A
:10149000084080080028E2D0206846612068806803
:1014A000C008C000216888602068806838432168CF
:1014B000886016480068012109050843134908603F
:1014C00008468068012109050843104988602068A2
:1014D000806801218903084321688860206880684A
:1014E0000121890208432168886000BFFF2021682C
:1014F000486200BF01212120015500BF00212020AA
:10150000015500BF00205FE77FFBFFFF00040140A3
:10151000F0B506460C461746306840681249084048
:101520000546FF2000042840000CE0701F20000248
:101530002840000A6070A806800EA07007204003B3
:101540002840400B2070002F0BD1E07800F047FEC0
:10155000E070607800F043FE6070A07800F03FFE1D
:10156000A0700020F0BD00003FFFFF00F0B5054671
:101570000C4617462868806A606028680069400445
:10158000400CA060286800681249084006463F20C9
:1015900000043040000C20707F2000023040000A20
:1015A00060707006400EA070012080053040000C75
:1015B000E070002F0BD1207800F011FE20706078D1
:1015C00000F00DFE6070A07800F009FEA070002011
:1015D000F0BD00007F7F7F0010B50446002C01D1D4
:1015E000012010BD2120005D002805D10021202010
:1015F0000155204600F06EF802212120015500BF60
:10160000CA202168486253202168486200BF2046F2
:1016100000F0FFFD002809D000BFFF2021684862CC
:1016200000BF0421212001550120DAE720688068ED
:101630002749084021688860216960680843A169DA
:101640000843216889680843216888602168E06848
:10165000086120680069218909040843216808613C
:101660002068C068802188432168C8602068C06CF9
:10167000800880002168C8646169E06908432168C6
:10168000C96C08432168C86420688068202108402C
:10169000002813D1204600F06DF900280ED000BFBD
:1016A000FF202168486200BF04212120015500BFAE
:1016B00000212020015500BF012092E700BFFF203C
:1016C0002168486200BF012121200155002088E7E0
:1016D000BFFF8FFF10B504460949206888420ED12C
:1016E000084800690121890408430649086100226D
:1016F00011460220FEF7C4FF0220FEF7B5FF10BD21
:101700000028004040100240F7B504460D4600BFD7
:101710002020005D012801D10220FEBD01212020F2
:10172000015500BF0221212001550298002809D14E
:10173000687810210840102804D16878EF2108400B
:101740000A3068700298002811D1E87800F053FD43
:101750000704687800F04FFD00020743A87800F006
:101760004AFD0743287840033E4606430AE0E878EE
:101770000004697809020843A978084329784903D5
:101780000843064600BFCA202168486253202168EA
:10179000486200BF204600F03CFD00280ED000BF8C
:1017A000FF202168486200BF04212120015500BFAD
:1017B00000212020015500BF0120AEE7194830402C
:1017C000216848602068C068802188432168C8601B
:1017D0002068806820210840002813D1204600F0AE
:1017E000C9F800280ED000BFFF202168486200BF62
:1017F00004212120015500BF00212020015500BFF8
:1018000001208AE700BFFF202168486200BF012154
:101810002120015500BF00212020015500BF0020DC
:101820007BE700003FFFFF00F7B504460D4600BF11
:101830002020005D012801D10220FEBD01212020D1
:10184000015500BF022121200155029800281BD11B
:101850002068806840210840002800D002E0002075
:10186000E87000BF287800F0C6FC0704687800F034
:10187000C2FC00020743A87800F0BDFC0743E878EB
:1018800000043E46064314E020688068402108407A
:10189000002800D002E00020E87000BF2878000493
:1018A000697809020843A9780843E97809040843DC
:1018B000064600BFCA20216848625320216848625A
:1018C00000BF204600F0A5FC00280ED000BFFF207E
:1018D0002168486200BF04212120015500BF00217A
:1018E0002020015500BF0120A7E721483040216892
:1018F0000860206880680121890488432168886025
:101900002969E86808432168896808432168886074
:101910002068C068802188432168C860206880688A
:1019200020210840002813D1204600F023F8002889
:101930000ED000BFFF202168486200BF0421212093
:10194000015500BF00212020015500BF012074E790
:1019500000BFFF202168486200BF012121200155FE
:1019600000BF00212020015500BF002065E70000D6
:101970007F7F7F0070B504462068C068A02188433F
:101980002168C860FEF76CFD054608E0FEF768FDBB
:10199000401B7D21C900884201D9032070BD206809
:1019A000C068202108400028F0D00020F6E710B5DC
:1019B0000446002C01D1012010BD3920005D002813
:1019C00005D1002138200155204600F00CF80221F5
:1019D00039200155211D206800F01CFD012139200E
:1019E00001550020E8E7704701460868C0680123F8
:1019F00018430B68D860086880684207520F062AAF
:101A000005D008680068012318430B68186000209F
:101A10007047704710B504462068006902210840ED
:101A2000400800281CD02068C068084040080028F2
:101A300016D0481F2168086101202076206880693F
:101A40008007800F002803D02046FFF7E2FF05E063
:101A5000204600F09DF8204600F09BF800202076FC
:101A60002068006904210840800800281DD02068F3
:101A7000C06808408008002817D0C8432168086162
:101A8000022020762068806903210902084000288E
:101A900003D02046FFF7BDFF05E0204600F078F8B0
:101AA000204600F076F800202076206800690821A2
:101AB0000840C00800281CD02068C0680840C00842
:101AC000002816D0C84321680861042020762068C9
:101AD000C0698007800F002803D02046FFF799FFD8
:101AE00005E0204600F054F8204600F052F80020AF
:101AF00020762068006910210840000900281DD0C8
:101B00002068C06808400009002817D0C843216831
:101B10000861082020762068C06903210902084076
:101B2000002803D02046FFF774FF05E0204600F0B0
:101B30002FF8204600F02DF800202076206800695C
:101B4000C007C00F01214840484000280CD0206841
:101B5000C068084048404840002805D0C81E216899
:101B60000861204600F016F820680069402108400E
:101B7000800900280BD02068C06808408009002830
:101B800005D0C84321680861204600F00FF810BD59
:101B90007047704710B5044603492068884201D158
:101BA000FEF764FC10BD0000001400407047704751
:101BB00070470000FEB504462068C56920680668C5
:101BC000206887682807000F0190019800280ED12F
:101BD0002020284000280AD020203040002806D0AD
:101BE000206E002802D02046216E8847FEBD019855
:101BF00000287DD0F807C00F002804D1FF20213035
:101C000030400028F5D0E807C00F00280BD0FF2097
:101C100001303040002806D0012021680862E06FC2
:101C200001210843E0670220284000280AD0F80775
:101C3000C00F002806D0022021680862E06F04214E
:101C40000843E0670420284000280AD0F807C00FA6
:101C5000002806D0042021680862E06F02210843B2
:101C6000E0670820284000280ED0202030400028BF
:101C700003D1F807C00F002806D0082021680862A9
:101C8000E06F08210843E067E06F002846D020207D
:101C90002840002809D020203040002805D0206EA0
:101CA000002802D02046216E8847E06F009020680F
:101CB000806840210840402804D00821009808404E
:101CC000002826D0204600F09FFC20688068402134
:101CD0000840402819D120688068884321688860BE
:101CE000E06E00280DD02548E16E8863E06E00E0CC
:101CF00015E0FEF78AFA002810D0E06E816B884765
:101D00000CE02046FFF754FF08E02046FFF750FFA5
:101D100004E02046FFF74CFF0020E06766E7012063
:101D20000005284000280CD00120800538400028FC
:101D300007D001200005216808622046FFF737FF21
:101D400054E78020284000280AD080203040002816
:101D500006D0606E002802D02046616E884745E7B5
:101D600040202840002807D040203040002803D0E1
:101D7000204600F05BFC39E700BF37E7F12500089B
:101D800010B50446002C01D1012010BDA069002827
:101D900000D000E000BF606F002805D10021702056
:101DA0000155204600F02CF8242060672068006868
:101DB0004008400021680860204600F047FC0128E8
:101DC00000D1E2E7606A002802D0204600F060FB04
:101DD000206840680921C90288432168486020685A
:101DE00080682A2188432168886020680068012172
:101DF000084321680860204600F0C2FBC5E70000E8
:101E000010B586B00446142101A8FEF7BEF9264994
:101E10002068884246D12548806B01210905084386
:101E20002249886300BF0846C06A042108431F494D
:101E3000C8620846C06A04210840009000BF00BF85
:101E400000BF1A48C06A082108431849C8620846FA
:101E5000C06A08210840009000BF00BF48020190FE
:101E6000022002900020039003200490022005909D
:101E700001A90F48FEF7F8F9042001900220029012
:101E800000200390032004900620059001A9094832
:101E9000FEF7EAF9002211460E20FEF7F1FB0E20B4
:101EA000FEF7E2FB06B010BD0050004000100240FB
:101EB00000080050000C0050FFB583B004460D46EA
:101EC0001746606F202875D1002D01D0002F02D158
:101ED000012007B0F0BD01210903A068884208D1A4
:101EE0002069002805D1E807C00F002801D0012093
:101EF000EFE700BF7020005D012801D10220E8E774
:101F000001217020015500BF0020E067212060679B
:101F1000FEF7A6FA019050200753522007530121E3
:101F20000903A068884205D12069002802D1002653
:101F3000029502E02E460020029021E006980090D3
:101F4000002280212046019B00F080FD002801D066
:101F50000320BEE7002E09D102980088C005C00DFD
:101F6000216888620298801C029003E03078216822
:101F70008862761C5220005B401E81B252200153C1
:101F80005220005B0028D9D1069800900022402101
:101F90002046019B00F05AFD002801D0032098E75D
:101FA0002020606700BF00217020015500BF002085
:101FB0008FE7FFE702208CE7704700BFFEE70000D5
:101FC00008B500BF1B48C06A042108431949C8620C
:101FD0000846C06A04210840009000BF00BF00BF4F
:101FE0001448C06A802108431249C8620846C06A82
:101FF00080210840009000BF00BF00BF0D48C06AAC
:10200000012108430B49C8620846C06AC007C00FD7
:10201000009000BF00BF00BF0846C06A0821084307
:102020000449C8620846C06A08210840009000BF01
:1020300000BF08BD0010024010B50C480C490860F4
:102040000020486000210A488160C160016109499F
:1020500041610021016241620121C9058162FEF7EF
:1020600061FA002801D0FEF7CFF810BD007C0040D7
:102070000C000020FFFF000000B587B0142102A86B
:10208000FEF783F800200190224823490860402091
:1020900048607F2120488160FF21C16000210161EB
:1020A00041618161C161FFF797FA002801D0FEF715
:1020B000ABF80C21684601721E2141728172002129
:1020C000C172002005900690002202A91248FFF775
:1020D000ABFB002801D0FEF797F805216846017197
:1020E0004171012181711421C171002201A90A48A5
:1020F000FFF70AFB002801D0FEF786F80422092129
:102100000548FFF757F9002801D0FEF77DF807B022
:1021100000BD0000002800403C00002010B50E4823
:102120000E490860E1204002486000210B488160B0
:10213000C16001610C21416100218161C1610162C5
:102140000020064948620846FFF71AFE002801D021
:10215000FEF75AF810BD000000500040600000205B
:102160007047000010B5002819DA1A4A03071B0F40
:10217000083B9B089B00D2588307DC0EFF23A3403B
:102180009A438B071B0E8407E40EA3401A43114B9E
:102190000407240F083CA408A4001A5118E00E4AB2
:1021A00003231B02D21883089B00D2588307DC0E3E
:1021B000FF23A3409A438B071B0E8407E40EA34022
:1021C0001A43054B032424021B198408A4001A5146
:1021D00010BD00001CED00E000E100E0704701468A
:1021E000F020084000090A23584302460807000F60
:1021F0008018C0B2704702460023114603E05B1C02
:1022000008460A38C1B20A29F9D21807000E084355
:10221000704770B504462068C06840210840002817
:1022200015D1401E2168C860FEF71AF9054608E07E
:10223000FEF716F9401B7D21C900884201D9032011
:1022400070BD2068C068402108400028F0D0002000
:10225000F6E7000000B589B000200890142103A81B
:10226000FDF793FF164800680421084314490860ED
:10227000012000051349486113480068C0688021A7
:1022800008401249084310490968C860002208A99B
:102290000D48FFF73DF9002203A90B48FFF766F947
:1022A0006846817B427B007B01920291009008A8E6
:1022B00083784278C17806A000F006FC09B000BD22
:1022C00000700040000401403C0000207FFBFFFF45
:1022D00074696D653A20323025642D25642D25649E
:1022E0002025643A25643A25640D0A00704770473A
:1022F00000B59DB038210FA8FDF747FF14210AA8AB
:10230000FDF743FF28216846FDF73FFF214800689D
:102310000321C90288430121C90240181D490860F0
:10232000FEF7B8F91C4800690321C90288431A491D
:10233000086105200F9001200004109000121190F8
:10234000002019900FA8FEF7BBFC002801D0FDF774
:102350005BFF0F200A9002200B9000200C900D9044
:102360000E9000210AA8FEF7F3FA002801D0FDF72D
:102370004BFFA02000900120000401900320800466
:1023800008906846FEF790F9002801D0FDF73CFF61
:102390001DB000BD007000404010024015480068AC
:1023A000FF2101310843134908600846C0681249FB
:1023B00008401049C86008460068104908400D49A7
:1023C0000860084680684008400088600846006849
:1023D000012189048843074908600846C068FD2137
:1023E000090488430349C86000200861C803044900
:1023F00088607047001002400C40FF88F6FFF6FE30
:1024000000ED00E010B50248FFF704FB10BD00002E
:10241000E000002010B5026801239B07984208D015
:10242000184B984205D0184B984202D0174B98424F
:1024300005D170241346A3431A464B681A4301235F
:102440009B07984208D00F4B984205D00E4B9842FC
:1024500002D00E4B984206D1032424021346A34314
:102460001A46CB681A4380241346A3430C692343BE
:102470001A4602608B68C3620B6883620123436162
:1024800010BD00000004004000080140001401409D
:10249000818CC907C90F002908D001684968012249
:1024A00052049143826A1143026851600222416AD8
:1024B0001140022907D101684968D2039143C26AD9
:1024C0001143026851600422416A1140042907D176
:1024D0000168496812049143026B1143026851601C
:1024E0000822416A1140082907D10168496812038E
:1024F0009143426B1143026851601022416A1140BE
:10250000102907D10168896812029143826B114337
:10251000026891602022416A1140202907D1016898
:10252000896812029143C26B114302689160402294
:10253000416A1140402915D10168496892039143CD
:10254000026C11430268516001221205016C914234
:1025500008D101684968032252059143426C114336
:10256000026851608022416A1140802907D10168C8
:10257000496812039143826C1143026851607047AD
:1025800038B504460020E067FDF76AFF054620687D
:1025900000680821084008280BD114482B46002267
:1025A00089040090204600F051FA002801D0032051
:1025B00038BD206800680421084004280BD10B486E
:1025C0002B46002209050090204600F03FFA002823
:1025D00001D00320ECE720206067A06700BF002146
:1025E0007020015500BF0020E2E70000FFFFFF015F
:1025F00070B50546AC6A00215A20015352200153A0
:102600002046FFF7D5FA70BD01680968FF22213224
:1026100091430268116001688968490849000268AD
:1026200091602021816700210166704710B5044642
:102630002068006840218843216808602020606786
:10264000002060662046FFF7B7FC10BDF0B587B0EC
:102650000446102004900025002003900026EE4937
:102660002068884200D100E000BF2169A0680843CB
:1026700061690843E1690843074620680068E74943
:102680000840384321680860206840680321090336
:102690008843E168084321684860A769DE492068EB
:1026A000884201D0206A0743206880680B21090214
:1026B000884338432168886000BFD9492068884230
:1026C0001CD1D848C0688007800F002806D0012898
:1026D0000AD0022805D003280CD108E0012004907C
:1026E0000BE00220049008E00420049005E008209C
:1026F000049002E01020049000BF54E0CA49206812
:1027000088421CD1C748C0680C210840002806D068
:1027100004280AD0082805D00C280CD108E0002095
:1027200004900BE00220049008E00420049005E0EF
:102730000820049002E01020049000BF33E0BB4961
:102740002068884202D1002004902CE0B84920681B
:10275000884202D10020049025E0AF4920688842D9
:102760001FD1B048C068032189020840002808D062
:1027700001218902401A0AD0401A05D0401A0CD112
:1027800008E0002004900BE00220049008E0042000
:10279000049005E00820049002E01020049000BF9F
:1027A00001E01020049000BF9B492068884256D168
:1027B000049804281AD004DC002807D002281CD171
:1027C00008E0082816D0102817D117E0FEF7ECF91A
:1027D000064616E09348403800681021084000097A
:1027E000002801D0934E00E0934E0AE0FEF700FA75
:1027F000064606E00126F60303E000BF0120039031
:1028000000BF00BF002E0AD0606841004018B042EF
:1028100003D860680003B04202D201200390F4E0C4
:10282000606802903046FF21013100F05DF9626876
:10283000520800238018594101910090029AFDF737
:102840006DFC054603200002854205D37B48854286
:1028500002D82068C560D8E001200390D5E00121AE
:10286000C903E06988426FD1049804283CD006DC93
:10287000002809D0012813D002284AD11CE00828DA
:102880003ED0102845D145E0FEF78EF94000616842
:102890004908401802906168FDF72AFC85B23CE0C7
:1028A000FEF794F940006168490840180290616899
:1028B000FDF71EFC85B230E05A4840380068102110
:1028C00008400009002807D061684A085C4BD0180E
:1028D000FDF70EFC85B206E061684A08594BD01836
:1028E000FDF706FC85B218E0FEF782F9400061684A
:1028F0004908401802906168FDF7FAFB85B20CE0C8
:1029000061684A0801231B04D018FDF7F1FB85B26A
:1029100003E000BF0120039000BF00BF102D0FD3C4
:10292000494885420CD848480F3828400590280768
:10293000400F05990843059005982168C86064E038
:102940000120039061E0FFE7049804283AD006DCF8
:10295000002809D0012812D0022847D11AE00828FF
:102960003BD0102842D142E0FEF71EF961684908C9
:10297000401802906168FDF7BBFB85B23AE0FEF7B4
:1029800025F961684908401802906168FDF7B0FBBD
:1029900085B22FE023484038006810210840000924
:1029A000002807D061684A08224BD018FDF7A0FB29
:1029B00085B206E061684A081F4BD018FDF798FB06
:1029C00085B217E0FEF714F96168490840180290D3
:1029D0006168FDF78DFB85B20CE061684A08012350
:1029E000DB03D018FDF784FB85B203E000BF0120B4
:1029F000039000BF00BF102D05D31348854202D8B5
:102A00002068C56001E00120039000202066606618
:102A1000039807B0F0BD000000480040F369FFEFE5
:102A2000003801404010024000440040004C00408B
:102A30000050004000093D000024F400FFFF0F009B
:102A400000127A000048E801FFFF0000FFB581B0E6
:102A500004460D4617460A9E22E0701C00281FD02F
:102A6000FDF7FEFC0499401AB04201D8002E17D1A0
:102A700020680068FF21A131884321680860206830
:102A80008068400840002168886020206067A06757
:102A900000BF00217020015500BF032005B0F0BD2C
:102AA0002068C0692840A84201D1012000E0002030
:102AB000B842D2D00020F1E710B50248FFF77AF80B
:102AC00010BD0000600000200FB410B503A9044B36
:102AD000044A029800F030F810BC08BC04B0184753
:102AE000892C000808000020F8B582B28BB2040CD3
:102AF0000D0C10465843002126465E43370C360421
:102B00008019794116466E43370C36048019794195
:102B100026466E438919F8BD02E008C8121F08C195
:102B2000002AFAD170477047002001E001C1121F4E
:102B3000002AFBD170470000FFB58DB00446002588
:102B400006E025280AD0109A0F999047641C6D1C46
:102B500020780028F5D1284611B0F0BD00270121CA
:102B6000484A009700E00743641C23780846203B4E
:102B700098401042F7D120782E2817D1042007431F
:102B80006078641C2A280CD10E98641C02C800913D
:102B90000E900BE000990A22514330394018641C12
:102BA00000902078014630390929F3D9207800288F
:102BB000D1D0642808D0692806D075281ED0109A74
:102BC0000F9990476D1C5BE00A200E99019001C996
:102BD0000E91002802DA40422D2102E0390504D589
:102BE0002B216A461172012103E0F90704D020214C
:102BF000F7E70BAE0B910DE00021FAE70A200E99E2
:102C0000019001C90E91F7E70199FDF771FA303192
:102C1000761E31700028F7D103A8801B2030019068
:102C2000780701D5009801E00120009001998842C1
:102C300001DD401A00E000200027009006E002A815
:102C4000109AC05D0F9990476D1C7F1C0B988742AE
:102C5000F5DB04E0109A30200F9990476D1C009925
:102C6000481E00900029F5DC05E03078109A761CAB
:102C70000F9990476D1C0199481E01900029F4DCC2
:102C8000641C65E70928010013B50C467D23DB00B1
:102C9000012269460248FFF70FF900981CBD0000A9
:102CA00060000020FDF7EAFBFFF722FBFFF788F941
:102CB000FFF7C2F9FFF7E0F9FFF730FA00BFFEE7D0
:102CC00000000000000000000102030406070809DC
:102CD0000000000001020304030406080C10182081
:102CE00030000000042D0008000000200C0000004F
:102CF000182B0008102D00080C00002014050000FF
:102D0000282B000800000000000020000000000048
:04000005080000C12E
:00000001FF
